:10000000422883169B0083161C141A089B0A3E285C
:1000100083169A001C1555309D00AA309D009C1433
:100020009C1810281C119B0A3E2883178001840A03
:10003000FF3E031D16283E28A601A500FF30A50798
:10004000031CA607031C3E280330A400DF302A202F
:100050001E28A401E83EA300A409FC30031C332899
:10006000A30703183028A3070000A40F3028231883
:100070003928A31C3D2800003D2808008313831263
:100080000313080007309F00831681173030850066
:10009000860108308312AC000730AD000430AE009A
:1000A0000830AF001F30B0000530B1000230B200A0
:1000B000BE0111303E0203186128FB22BE0A031D57
:1000C00059282030840060301620A0308400503041
:1000D000162020308400303015206C230330B90006
:1000E000BA010330390203187B2839083807B700F2
:1000F000D321B90A8D2803303902031D8D28B6019A
:10010000B9013A080120B800F630380203188A28ED
:10011000BA0A8D28BA010330B9002D08A1002108C0
:10012000AC002E08A1002108AD002F08A100210875
:10013000AE003008A1002108AF003108A10021085D
:10014000B0003208A1002108B1003608B200FB223D
:10015000861EAB288029861DAE28AF2871286C2307
:100160000510061464301C2006100330A6008430ED
:100170001D20861EBC28BF20061EB12861283230F3
:100180001C20861ABF281130AC000A30AD00113097
:10019000AE000A30AF00B0000430B1000A30B20047
:1001A000BE01BE0A2C08BF002D08A1002108AC002A
:1001B0002E08A1002108AD002F08A1002108AE00E3
:1001C0003008A1002108AF003108A1002108B000CB
:1001D0003208A1002108B1003F08B200FB22030150
:1001E000861A0130AB0041303E020130031D003061
:1001F000AB040301061A0130AB040319D128861E93
:10020000062932301C20861A012908000130AC0072
:10021000AD01AE01AF01B001B101BE011930B200B4
:100220002D08BF002E08A1002108AD002F08A10055
:100230002108AE003008A1002108AF003108A1005C
:100240002108B0003208A1002108B100BE0A203008
:100250003E02031D2F290A30B200BE01532905308A
:100260003E02031D36291530B200532909303E02E3
:10027000031D3D290730B20053290F303E02031DF4
:1002800044291C30B200532914303E02031D4B296F
:100290001B30B20053291A303E02031D52290D3083
:1002A000B2005329B201FB22861D64292C08A2004A
:1002B0000310220CA1002108AC002C08A100A10809
:1002C000031D64290130AC00061E75292C08A2000C
:1002D0000310220DA1002108AC002C08A100113050
:1002E0002102031C75291030AC002C08A100210844
:1002F000BF05BF0803197D290800861E10290800C4
:1003000064301C20861A8029BB01AF018730BD00F4
:100310003B080120BC003C08B700D3213608B000E0
:10032000B70AD3213608B100B70AD3213608B20084
:100330003D08B700D3213608AC00B70AD3213608F0
:10034000AD00B70AD3213608AE00861DA9290330B7
:10035000BC07061EAD290330BC02FA303C02031C68
:10036000B329F630BC00F7303C02031CB829BC01AD
:100370007F303B02031CBE29F630BC00FB22861EE8
:100380008B2964301C20861AC1293B0883169B00E8
:1003900083123C0808203C08BD00BB0AF6303C0232
:1003A000031D882961283708F83C031CFA2ADA2142
:0C03B000B600FA2A02308A003708002A42
:1004000082071E3405341E341F3415340A340E346A
:10041000113411341F3411340E341F341534113497
:100420001F34053405340E3411341D341F340434A4
:100430001F3400341D340034083410340F341F349A
:1004400004341B341F34103418341F3402341F3466
:100450001F3401341E340E3411340E341F34093469
:100460000634063409341F341F3405341A34123468
:100470001534093401341F3401341F3410341F344F
:100480000F3410340F341F3408341F341B34043439
:100490001B3403341C3403341934153413341F341F
:1004A00011341F3412341F341034123419341634FA
:1004B000113415340A34073404341F341734153416
:1004C00009340E3415340834013405341F340A3429
:1004D00015340A34023415340E3400341734003421
:1004E000013415340234003418341834003408341C
:1004F00018340E3411340634043404340434103403
:100500001034103406340234033410340E34013401
:100510000034003400340E3411340034003411340B
:100520000E3415340E34153401340E3410340A34BC
:100530000A340A3406340C34063404340E341F34BE
:100540001F340E34043404340E34043400340A34BA
:10055000003400341A340034093415341E341F3486
:1005600014340834083414340034083414341E3479
:100570000C341A3414341E34053400341234153457
:100580000F341F340434183410340D3400341F3445
:10059000083414341F34003400341E3404341E3440
:1005A0001C34043418340834143408341F3405342B
:1005B0000234023405341F341E340234043414343B
:1005C00016340A340F34123400340C3410341C3412
:1005D0001C3410340C341E3408341E3414340834E3
:1005E0001434133414340F3414341C3414340434D9
:1005F0000A3411340800831686018312B4010A30CC
:1006000034020318672BB501073035020318642B39
:1006100086148617051585150514851406173508E3
:100620002C3E84000008B300831033188314831811
:100630008615831C86118310B318831483188616BD
:10064000831C861283103319831483180616831CA7
:1006500006128310B319831483180615831C061120
:100660008310331A831483180614831C0610B508EC
:10067000031D3C2B86135F2B01303502031D422BDB
:1006800005115F2B02303502031D482B85115F2BAE
:1006900003303502031D4E2B05105F2B043035024D
:1006A000031D542B85105F2B05303502031D5A2B7B
:1006B00006135F2B06303502031D5F2B86100330B7
:1006C0001C20B50A031D042BB40A031DFF2A383071
:1006D0008316860083120800861186120612061100
:1006E000061086170515851505148514061786143A
:0406F0000800792B5A
:02400E00723FFF
:104200003F0024001E00510054005A008700150092
:10421000000006001E0087007B00870039002A008E
:1042200039008700510054006600870039000C00F7
:104230001E000C00270036008700180027008700AA
:104240002D002100000000003900360087003F00EB
:1042500000002700510060006C0087001E0018005D
:104260001B001E0087002A002D00870015002A0071
:1042700024000C00720009000C00090036007200D6
:1042800027002100840081000C0021000C001E008A
:10429000390033002A0027001800060000008700BC
:0442A0008700F6009D
:00000001FF
